:020000040800F2
:10000000B806002039020008210A0008D5090008B6
:10001000D7090008F3020008690B0008000000007F
:10002000000000000000000000000000250A000899
:10003000F502000800000000230A0008270A000853
:10004000530200085302000853020008530200083C
:10005000530200085302000853020008530200082C
:10006000530200085302000853020008530200081C
:10007000530200085302000853020008530200080C
:100080005302000853020008530200080000000059
:100090000000000000000000000000005302000803
:1000A00053020008530200085302000853020008DC
:1000B00053020008530200085302000853020008CC
:1000C00053020008530200085302000853020008BC
:1000D000530200085D0B00085302000800000000F6
:1000E00053020008530200085302000800000000F9
:1000F00000000000000000000000000053020008A3
:1001000000000000530200085302000853020008D8
:1001100000000000000000000000000000000000DF
:10012000530200085302000853020008530200085B
:100130005302000800000000000000000000000062
:100140000000000000000000000000005302000852
:10015000530200085302000853020008530200082B
:1001600053020008530200080000000000000000D5
:10017000000000000000000000000000000000007F
:100180000000000053020008000000000000000012
:10019000530200085302000800F002F800F03CF897
:1001A0000AA090E8000C82448344AAF10107DA45D2
:1001B00001D100F031F8AFF2090EBAE80F0013F0E8
:1001C000010F18BFFB1A43F001031847DC090000B8
:1001D000FC090000103A24BF78C878C1FAD8520749
:1001E00024BF30C830C144BF04680C6070470000B1
:1001F0000023002400250026103A28BF78C1FBD830
:10020000520728BF30C148BF0B6070471FB500F0D0
:10021000C5FC1FBD10B510BD00F031F81146FFF749
:10022000F5FF00F0B2FC00F04FF803B4FFF7F2FF67
:1002300003BC00F057F80000094880470948004710
:10024000FEE7FEE7FEE7FEE7FEE7FEE7FEE7FEE786
:10025000FEE7FEE704480549054A064B70470000E3
:100260002D0A000899010008B8000020B8060020F7
:10027000B8020020B80200207047704770477546EA
:1002800000F02CF8AE4605006946534620F0070002
:10029000854618B020B5FFF7DDFFBDE820404FF0E0
:1002A00000064FF000074FF000084FF0000B21F060
:1002B0000701AC46ACE8C009ACE8C009ACE8C0092D
:1002C000ACE8C0098D46704710B50446AFF3008016
:1002D0002046BDE81040FFF7A8BF00000048704767
:1002E0005800002001491820ABBEFEE7260002009E
:1002F0007047FEE77047000010B500F019FAC0081B
:1003000000F01CFA084809490068B0FBF1F0C1B2DE
:10031000074801EB41020170C2EBC1114FF6FF72B9
:1003200002EAC101418010BD1000002000127A00D5
:100330000000002010B50B4C01220421204600F0E3
:100340005FF900220221204600F05AF90122102113
:10035000204600F055F920460022BDE81040082153
:1003600000F04EB9000002402DE9F0410446876DCF
:1003700000F04CF9064694F835000025022806D016
:100380008020606584F834500120BDE8F081206849
:10039000016821F0160101602068416921F08001A7
:1003A0004161206C08B9A06C20B12068016821F07F
:1003B000080101602068016821F0010101600CE082
:1003C00000F024F9801B052807D920206065032050
:1003D00084F8350084F83450D7E720680068C007F7
:1003E000EED194F85C103F208840B860012084F87A
:1003F000350084F834500020C7E790F83510022902
:1004000003D08021416501207047052180F8351017
:100410000068016821F001010160002070470000C0
:100420002DE9F84FDFF8B8A10022012403254FF091
:100430000F090AF1040BAAF1040E00BF0B6804FABD
:1004400002F63340B34273D10F7907F00307012F4F
:1004500001D0022F16D187684FEA420805FA08FC3E
:1004600027EA0C07D1F80CC00CFA08FC4CEA070C80
:10047000C0F808C04768B7430E79C6F30016964027
:100480003E4346600E79F643B6070DD0C768560066
:1004900005FA06FC27EA0C07D1F808C00CFA06FC9E
:1004A0004CEA070CC0F80CC00E7906F00306022EC9
:1004B00010D1D60800EB8608D8F8206057074FEA1D
:1004C000D76C09FA0CF7BE430F6907FA0CF73743EC
:1004D000C8F8207006684FEA420C05FA0CF7BE43D4
:1004E0000F7907F0030707FA0CF7374307604E68E8
:1004F00016F4403F6DD03B4E376847F48047376075
:10050000366822F0030706F480460096364E07EB65
:10051000060CDCF8086897073F0F09FA07F826EA87
:100520000806DFF8C880404503D14FF000081EE000
:100530004FE0DFF8BC80404502D14FF0010816E0E3
:10054000DFF8B080404502D14FF002080FE0DFF83D
:10055000A880404502D14FF0030808E0DFF89C80F6
:10056000404502D14FF0040801E04FF0070808FAB7
:1005700007F848EA0608CCF80888DAF80060574619
:10058000D1F804C09E435FEACC2C00D51E433E60E8
:10059000DBF800605F46D1F804C09E435FEA8C2C14
:1005A00000D51E433E60DEF800607746D1F804C0F7
:1005B0009E435FEA8C3C00D51E433E60084F083FD7
:1005C0003E68D1F804C09E435FEACC3C00D51E4390
:1005D0003E60521C102AFFF431AFBDE8F88F0000D6
:1005E000083C014044380240003001400000024015
:1005F0000004024000080240000C024000100240CB
:100600000AB1816170470904FBE700000148806876
:1006100070470000040000200248816802781144FD
:1006200081607047040000200B4810B5016841F458
:1006300000710160016841F480610160016841F46A
:1006400080710160032000F061F80F2000F006F8CF
:1006500000F024F8002010BD003C024070B50D4DA4
:1006600004464FF47A712878B1FBF0F00A49096822
:10067000B1FBF0F000F062F848B9102C07D200226C
:100680002146501E00F022F800206C6070BD012051
:1006900070BD000004000020100000200A4808B5CA
:1006A000016841F480410160006800F480400090DE
:1006B0000548001F016841F080510160006800F0AA
:1006C0008050009008BD000044380240F0B40E4B4A
:1006D0001B680C46C3F30223C3F10705042D00D9A0
:1006E0000425191D072901D2002300E0DB1E012685
:1006F00006FA05F1491E214099409E40761E16409B
:100700003143F0BC00F031BA0CED00E0064900F0D6
:10071000070208684FF6FF03184040EA0220034A28
:1007200010430860704700000CED00E00000FA057F
:1007300001480068704700001000002010B5401EFE
:10074000B0F1807F01D3012010BD4FF0E024606143
:100750000F21601700F009FA0020A0610720206136
:10076000002010BD70477047F8B50168044608685E
:10077000CA684B6910F00F0F4FF0000559D003F015
:10078000010602F49077374365D0C10705D0D10543
:1007900003D5216C41F001012164410705D5D9073A
:1007A00003D0216C41F002012164810705D5D907EE
:1007B00003D0216C41F004012164010707D502F048
:1007C0002001314303D0216C41F008012164216CE8
:1007D00000293AD0800604D5900602D5204600F0C4
:1007E0005CF920684069216CC0F38010090700D4CF
:1007F00060B3204600F02AF920684069400621D500
:100800002068143050E8001F21F0400140E8001239
:10081000002AF5D1A06BA8B16C490165A06BFFF768
:10082000ECFD002811D0A06B016D01B0BDE8F040D7
:10083000084783060FD593060DD52046BDE8F8403E
:1008400000F02BB92046FFF78EFFF8BD2046FFF7DA
:100850008AFF2564F8BD266B2023012E79D1C606B8
:1008600077D5D60675D5086848680090486940066F
:1008700040D5A16B086840680004000CEAD0A28D46
:100880008242E7D9E085C869B0F5807F2DD0206825
:100890000C3050E8001F21F4807140E80012002A5B
:1008A000F5D12068143050E8001F21F0010140E824
:1008B0000012002AF5D12068143050E8001F21F002
:1008C000400140E80012002AF5D184F83E3025634B
:1008D00020680C3050E8001F21F0100140E80012A1
:1008E000002AF5D1A06BFFF73FFDA08DE18D401AE6
:1008F00081B229E0A08DE18D401A81B2E08D0028FF
:10090000A8D00029A6D020680C3050E8002F22F48F
:10091000907240E80026002EF5D12068143050E88F
:10092000002F22F0010240E80026002EF5D184F8C5
:100930003E30256320680C3050E8002F22F0100272
:1009400040E80023002BF5D12046FFF70BFFF8BD50
:10095000FFE705062BD5150629D594F83D0021287B
:10096000F5D1A068B0F5805F01D12069B0B1206AEF
:10097000411C2162216800784860E08C401E000420
:10098000000CE084E3D12068C16821F08001C160DF
:100990002068C16841F04001C160D8E7206A008842
:1009A000C0F308004860206A801C2062E5E740062A
:1009B000CDD55006CBD5CA68204622F04002CA6089
:1009C00084F83D3000F005F8C1E700003D0A00085A
:1009D00070477047FEE7FEE70F4810B5026886B023
:1009E000002142F00102026000680C4C00F001009E
:1009F00005901E2000900120CDE901010220039006
:100A000069462046FFF70CFD012206212046FFF72C
:100A1000F7FD06B010BD0000303802400000024073
:100A2000FEE770477047FFF7F7BD00000248016816
:100A300041F470010160704788ED00E010B5806BF3
:100A40000021C185C184FFF78EFE10BD01680C3105
:100A500051E8002F22F4907241E80023002BF5D1D9
:100A60000168143151E8002F22F0010241E800230F
:100A7000002BF5D1016B012909D101680C3151E836
:100A8000002F22F0100241E80023002BF5D1202195
:100A900080F83E1000210163704708B590F83E10C1
:100AA000222901D0022008BD82684FF480539A4267
:100AB00001D1016921B1816A9A421BD04AB10AE091
:100AC0000268816A5268C2F308020A80816A891C3E
:100AD00008E0026972B10268526802F07F020A708F
:100AE000816A491C8162C18D491E0904090CC185B6
:100AF00003D019E002685268F1E70168CA6822F081
:100B00002002CA600168CA6822F48072CA60016863
:100B10004A6922F001024A61202180F83E10016BEF
:100B2000012903D0FFF754FF002008BD0021016315
:100B300001680C3151E8002F22F0100241E8002337
:100B4000002BF5D101680A68D20602D50A68496807
:100B50000091818DFFF706FEE6E700000148FFF7F0
:100B600003BE000014000020FEE70907090E00285C
:100B700004DB00F1E02080F80014704700F00F0063
:100B800000F1E02080F8141D7047FFF74DFDFFF7DE
:100B9000B3FBFFF721FFFFF7CDFBFCE74FF0407001
:100BA000E1EE100A70470000C80B000800000020AA
:100BB00014000000D4010008DC0B00081400002021
:100BC000A4060000F0010008000000000100000081
:0C0BD00010000000000000000024F400F1
:040000050800019955
:00000001FF
