:020000040800F2
:100000008007002049020008291100082511000876
:1000100027110008C50D0008471100080000000066
:100020000000000000000000000000002D1100088A
:10003000C70D0008000000002B1100082F11000858
:1000400063020008630200086302000863020008FC
:1000500063020008630200086302000863020008EC
:1000600063020008630200086302000863020008DC
:1000700063020008630200086302000863020008CC
:100080006302000863020008630200080000000029
:1000900000000000000000000000000063020008F3
:1000A000630200086302000863020008630200089C
:1000B000630200086302000863020008630200088C
:1000C000630200086302000863020008630200087C
:1000D00063020008451100086302000800000000E8
:1000E00063020008630200086302000800000000C9
:1000F0000000000000000000000000006302000893
:1001000000000000630200086302000863020008A8
:1001100000000000000000000000000000000000DF
:10012000630200086302000863020008630200081B
:100130006302000800000000000000000000000052
:100140000000000000000000000000006302000842
:1001500063020008630200086302000863020008EB
:1001600063020008630200080000000000000000B5
:10017000000000000000000000000000000000007F
:100180000000000063020008000000000000000002
:10019000630200086302000800F002F800F044F86F
:1001A0000AA090E8000C82448344AAF10107DA45D2
:1001B00001D100F039F8AFF2090EBAE80F0013F0E0
:1001C000010F18BFFB1A43F0010318470C1200007F
:1001D0002C120000103A24BF78C878C1FAD8520710
:1001E00024BF30C830C144BF04680C6070470000B1
:1001F0000023002400250026103A28BF78C1FBD830
:10020000520728BF30C148BF0B6070471FB501F0CF
:10021000D8F89DE8030000F0A7FB00F099F81FBD97
:1002200010B500F0FEF810BD00F061F91146FFF7BF
:10023000EDFF00F0EDFF00F065FB03B4FFF7F0FF0A
:1002400003BC00F023FD000009488047094800472F
:10025000FEE7FEE7FEE7FEE7FEE7FEE7FEE7FEE776
:10026000FEE7FEE704480549054A064B70470000D3
:100270003511000899010008800100208007002046
:1002800080030020800300200FB4044910B503AAA6
:10029000029800F02FF810BC5DF814FB74000020E9
:1002A0004FF0000200B5134694469646203922BF0F
:1002B000A0E80C50A0E80C50B1F12001BFF4F7AF5A
:1002C000090728BFA0E80C5048BF0CC05DF804EB3C
:1002D000890028BF40F8042B08BF704748BF20F8AA
:1002E000022B11F0804F18BF00F8012B70477047A8
:1002F00070477047074B70B50D467B4400F011F80E
:100300000446284600F020F810B14FF0FF3070BDD1
:10031000204670BDF70E000001694A1C0261087892
:10032000704700B58FB0CDE9013100210591054935
:100330007944CDE903101146684600F024F90FB066
:1003400000BD0000E5FFFFFF007B00F0800070476C
:1003500010B542485421FFF7A3FF41485421FFF74D
:100360009FFF40485421FFF79BFF3F493B483C4AD1
:100370003F4B08603D490A603A491960531C0365C8
:10038000481C1065012008653B48344A39A178446F
:1003900000F01CFA20B9384878440A3800F0BBFA5B
:1003A00037482F4A35A1784400F010FA20B9344874
:1003B00078440A3800F0AFFA32482A4A2FA178442C
:1003C00000F004FA20B92F4878440A3800F0A3FA64
:1003D00040232248DC000021224600F0D3F920B15E
:1003E00025487844543800F096FA1D4822464023A8
:1003F000002100F0C7F920B121487844543800F0BA
:100400008AFA184822461023002100F0BBF9002880
:1004100006D01C487844BDE81040563800F07BBA3E
:1004200010BD104870B5006D20F001040B4800F0BD
:1004300043FA0B4800F040FA0A4800F03DFA09E0A0
:10044000206D20F00105204600F036FA204600F02D
:1004500073F82C46002CF3D170BD00002000002062
:1004600074000020C80000201400002018000020A4
:100470001C000020720000003A100000770000000D
:1004800026100000121000000EB5CDE9000100F0AA
:10049000DDFB029069460120ABBE0EBD08B5694682
:1004A00000900220ABBE08BD1FB58DE8070069466D
:1004B0000520ABBE04B010BD1FB58DE80F00694626
:1004C0000620ABBEF6E708B5694600900920ABBE32
:1004D00008BD1CB5CDE9000169460A20ABBE1CBDB4
:1004E000704708B5694600900C20ABBE08BD754644
:1004F00000F018FAAE4605006946534620F00700A2
:10050000854618B020B5FFF7ADFEBDE820404FF09E
:1005100000064FF000074FF000084FF0000B21F0ED
:100520000701AC46ACE8C009ACE8C009ACE8C009BA
:10053000ACE8C0098D46704770B50446051F00F051
:10054000F7F90068002C14BF446870BD002C18BF78
:10055000AC423CBF20466468F8D301680A18AA423E
:1005600018BF456003D12A68054611440160286818
:100570004119A1421CBF6C6070BD6168696021684F
:100580000844286070BD2DE9F04106460024D6E9F4
:100590000170F5688046304603E04146B847641C68
:1005A0003046A8470028F8D12046BDE8F0812DE963
:1005B000F04705460C46C86820F4201040F480003F
:1005C000C860800602D5084600F0FFFAE06841F2F4
:1005D00082014FF0FF390140022903D0204600F08C
:1005E0009DFAB5E000F42041B1F5004F0FD1C003F2
:1005F00006D56168E06A884200D80846606006E077
:100600002069E06260606069FFF76BFFA061A0682D
:100610000022EEB200280DDAE1688B050AD4C0434F
:10062000A06041F490302260E0606068411C61602D
:100630000670A5E0E0689046226040F40050E0605B
:10064000206968BB6069FFF73EFF012704F12405BC
:10065000A0B1A08910F4407F08D0E06900F0B3F9A0
:10066000206118B1E06840F4006016E0E7612561A0
:10067000E06820F4407040F480600EE0E06900F033
:10068000A2F900282061F1D0E06840F4006010F485
:10069000407FE06002D140F48070E06020696060DB
:1006A000E06825696FF0010AC1051FD56168E06A3D
:1006B000884200D80846411B04D02246284600F054
:1006C00037FAF0BBE068010203D5E562C4E90158DE
:1006D00054E0691CE1626160E16940F48030491EC8
:1006E000C4E9021030462E70BDE8F087010202D541
:1006F00000F480320AE06068411C61600670E068C6
:100700000A2E40F48030E06006D00022E16A606882
:10071000814203D90B4602E00122F7E70346A7898D
:100720005B1B7F0503D4E7699F4200DDE2B1814294
:1007300000D80146E5620F1AC4E90158002B09DD13
:1007400000E005E022461946284600F0F1F908B11C
:100750004846C9E747B1A069E5626560C01BA06172
:10076000E06840F01000E060E068000208D56168D1
:10077000A069E562491B08446560A0615046B3E783
:100780003046B1E770B5C468A50713D0650211D42F
:10079000B2F5807F09D0B2F5007F06D0B2F5806F48
:1007A00008D1012300F1240106E05D1E6FF07F46B1
:1007B000B54201D3012070BD0161C361416024F4E1
:1007C00070611143C160002070BD00002DE9F0414F
:1007D0000C4607461646104600F06EF82078611C5D
:1007E00061280AD0722802D077283CD102E0012586
:1007F000002405E00225042402E0082448F2020552
:1008000011F8010B2B2806D0622809D011F8010C31
:1008100074280AD00BE045F0030544F00204EFE72A
:1008200045F0040544F00104EAE744F010043846BA
:100830002146FFF729FE411C15D00021316171606E
:100840004FF40071F560F1617061200704D5304606
:100850000222002100F0E6F8306D40F00100306522
:100860003046BDE8F0810020FBE72DE9F0410D4660
:100870000646104C206DC10704D0410804D020F07A
:100880000104F7E722460EE0542000F09CF8070030
:100890000ED0206D47F001010843542120653846F1
:1008A000FFF7FEFC3A4629463046BDE8F0418DE7A9
:1008B0000020D6E7200000202DE9F04704464FF045
:1008C00000094FF0FF37C568D4E90486A80707D0B0
:1008D000204600F057F93046FFF7E0FD002802DA25
:1008E0003846BDE8F087280502D54046FFF724FECC
:1008F0004C212046FFF7D4FC206D20F0010020653C
:100900004846EEE710B50446AFF300802046BDE848
:100910001040FFF792BC10B500F07EF9BDE8104022
:1009200000F074B9004870471C01002070470000B7
:100930000048704724010020704770477047704797
:1009400038B504460A4600206946AFF30080002807
:1009500008BF38BD02460099204600F0A4F90120E6
:1009600038BD012000F0F3B9F8B5AFF300800546BB
:1009700000200C46102000BF0646A819A0420DD941
:10098000324669460020AFF30080070008BF00F040
:10099000DEF90098A04218BF0546C419FFF7C8FF4A
:1009A00005600746F01D20F007004619284600F0B4
:1009B00073F9B44208BFF8BDA21B31463868BDE8E0
:1009C000F84000F070B970B50646FFF7B1FF056852
:1009D00006F10B0020F00704B4429CBF002070BD5C
:1009E0002B466A68BAB11068A04210D304F108011E
:1009F00088423CBF5068586007D351681019416065
:100A00001168091B016058601460101D70BD134609
:100A10005268002AE7D121462846FFF791FF0028B7
:100A2000DED170BD2DE9F041044616460D464769FA
:100A3000007B80072ED03846FFF745FD50BB3EB304
:100A4000012E02D0022E25D104E0204600F045F907
:100A500005441DE03846FFF744FDE168002841F0F9
:100A60001001E16005DA204600F058F80120BDE8E9
:100A7000F081C9030BD56268E16A914200D8114642
:100A8000A26911442269891A814200DD08460544A1
:100A9000002D01DA0220EAE7E16A6068E26881423B
:100AA00006D29103E06203D522F4003141F0100236
:100AB000A6690027AE4213DCE16A814201D90B46E8
:100AC00000E0034603EB060C2369ACEB030CAC45DA
:100AD00006DD814201D98C4600E084469C4505D163
:100AE000A760276042F02000A5620DE0AD1BE6691B
:100AF000AE1B8142A66000D90846C01A281A2060A1
:100B00005819606022F0200003490840E06000208E
:100B100084F84870ABE70000BFCFD7FFC16821F46D
:100B2000001141F08001C1600021816001607047C7
:100B30002DE9F047814614460E464FF0FF38324803
:100B4000D5685769054209D03846A169FFF7C1FC4D
:100B5000002811DB2C48C0430540E5602B46324697
:100B600049463846FFF7A0FCA16920F00042B21ABE
:100B700011440028A16103D02046FFF7CFFF404673
:100B8000BDE8F08770B504460569C06A61688842AF
:100B900000D80846E16821F42011E160C90312D5AC
:100BA000A84208D02246411B2846FFF7C1FF10B1DA
:100BB0004FF0FF3070BD0020E562C4E90150E068ED
:100BC00020F48030E060002070BD10B50446C0689D
:100BD00020F02000E060A16AA06988420DD0204684
:100BE000FFF7D0FFE06820F4405040F01000E060D4
:100BF000A06AA0612069E062606044F24001E068A0
:100C00008843E06010BD000010000200002801D001
:100C100000F03CB87047000010B5014602A000F09B
:100C20007DF8012010BD00005349475254524544FD
:100C30003A2052656469726563743A2063616E2775
:100C400074206F70656E3A200000000010B5431CE0
:100C500002E010F8011B71B18107FAD14FF00132A7
:100C600002C88C1A8C4314EAC211F9D0C01A0A06C1
:100C700003D0C01E10BDC01A10BD0A0401D0801ED2
:100C800010BD0902FCD0401E10BD00000149182013
:100C9000ABBEFEE72600020000210160C0E90110A2
:100CA000704710207047034640688C46002818BFE4
:100CB00088423CBF03464068F8D31868184488420D
:100CC00007D00CF1030020F00700001D411A521A52
:100CD0000146081D0A60FFF72FBC10B50146C26827
:100CE000900703D0900607D5886A0AE000F03EF826
:100CF00001210160881E10BD8B69486818440B698A
:100D0000C01A91F848301BB191F84910401A10BD33
:100D10001103FCD50028FADD401E10BD70B5054654
:100D20000C460A2000E06D1C00F018F835B1287858
:100D30000028F8D102E0641C00F010F814B120780B
:100D40000028F8D1BDE870400A2000F007B810B5BF
:100D500000F010F8BDE81040FFF758BF08B569462D
:100D60008DF800000320ABBE08BD000000487047AE
:100D70001C01002010B5012805D0002103A0FFF7B9
:100D8000CDFF012010BD09A1F8E7000053494752EB
:100D9000544D454D3A204F7574206F66206865614B
:100DA00070206D656D6F7279000000003A20486513
:100DB0006170206D656D6F727920636F72727570EE
:100DC00074656400FEE7704770B5044600F004F9EE
:100DD0000546601C02D004480078044400F0FCF88A
:100DE000401BA042FAD370BD040000202DE9F84F4B
:100DF000DFF8B8A10022012403254FF00F090AF102
:100E0000040BAAF1040E00BF0B6804FA02F633408B
:100E1000B34273D10F7907F00307012F01D0022FDE
:100E200016D187684FEA420805FA08FC27EA0C0742
:100E3000D1F80CC00CFA08FC4CEA070CC0F808C04A
:100E40004768B7430E79C6F3001696403E434660A6
:100E50000E79F643B6070DD0C768560005FA06FCB2
:100E600027EA0C07D1F808C00CFA06FC4CEA070C7C
:100E7000C0F80CC00E7906F00306022E10D1D60879
:100E800000EB8608D8F8206057074FEAD76C09FABC
:100E90000CF7BE430F6907FA0CF73743C8F8207008
:100EA00006684FEA420C05FA0CF7BE430F7907F0CB
:100EB000030707FA0CF7374307604E6816F4403F04
:100EC0006DD03B4E376847F480473760366822F074
:100ED000030706F480460096364E07EB060CDCF856
:100EE000086897073F0F09FA07F826EA0806DFF8AF
:100EF000C880404503D14FF000081EE04FE0DFF806
:100F0000BC80404502D14FF0010816E0DFF8B08008
:100F1000404502D14FF002080FE0DFF8A8804045BD
:100F200002D14FF0030808E0DFF89C80404502D171
:100F30004FF0040801E04FF0070808FA07F848EA04
:100F40000608CCF80888DAF800605746D1F804C0E3
:100F50009E435FEACC2C00D51E433E60DBF8006068
:100F60005F46D1F804C09E435FEA8C2C00D51E4337
:100F70003E60DEF800607746D1F804C09E435FEA29
:100F80008C3C00D51E433E60084F083F3E68D1F8B8
:100F900004C09E435FEACC3C00D51E433E60521C19
:100FA000102AFFF431AFBDE8F88F0000083C014083
:100FB000443802400030014000000240000402407A
:100FC00000080240000C0240001002400AB181619A
:100FD00070470904FBE70000014880687047000083
:100FE0000400002002488168027811448160704743
:100FF000040000200B4810B5016841F40071016045
:10100000016841F480610160016841F48071016010
:10101000032000F061F80F2000F006F800F024F83B
:10102000002010BD003C024070B50D4D04464FF449
:101030007A712878B1FBF0F00A490968B1FBF0F049
:1010400000F05CF848B9102C07D200222146501E4F
:1010500000F022F800206C6070BD012070BD00001F
:1010600004000020100000200A4808B5016841F47F
:1010700080410160006800F4804000900548001F36
:10108000016841F080510160006800F080500090DC
:1010900008BD000044380240F0B40E4B1B680C46FB
:1010A000C3F30223C3F10705042D00D90425191D3C
:1010B000072901D2002300E0DB1E012606FA05F114
:1010C000491E214099409E40761E16403143F0BC97
:1010D00000F03AB80CED00E0064900F0070208689D
:1010E0004FF6FF03184040EA0220034A104308600D
:1010F000704700000CED00E00000FA0510B5401E3E
:10110000B0F1807F01D3012010BD4FF0E024606179
:101110000F21601700F018F80020A061072020615F
:10112000002010BDFEE7FEE7FEE770477047FFF7BF
:1011300059BF00000248016841F470010160704726
:1011400088ED00E07047FEE70907090E002804DB80
:1011500000F1E02080F80014704700F00F0000F16B
:10116000E02080F8141D704770B50D4D04464FF017
:1011700080762868B0FBF4F1481EB04203D309A082
:10118000FFF782F8F5E74FF0E020491E4161114A70
:10119000F02182F8141D002181610721016170BDD9
:1011A00010000020496E2066756E6374696F6E20B2
:1011B00064656C61795F636F6E6669673A537973D2
:1011C0005469636B5F436F6E666967206661696C23
:1011D00065640A000FE000E010B504464FF47A7031
:1011E000FFF7C2FF02480460002CFDD110BD0000D3
:1011F000000000208A68002A01DCFFF7D8B9521EDF
:101200008A604A68C0B2531C4B601070704700007F
:10121000FFF7F0FE00F016F8094E4FF4FA744FF4A1
:1012200000552046FFF7D0FD012229463046FFF742
:10123000CDFEF7EE000AB7EE000A00F0A5F8F0E7E1
:1012400000080240AFF3008070B586B0022403208E
:10125000CDE90004144E694630460394FFF7C6FDFD
:10126000F020009001200025CDE9010569463046B7
:10127000FFF7BCFD4FF440708DE831006946304601
:10128000FFF7B4FD20038DE83100084E6946304673
:101290000394FFF7ABFDC0208DE83100694630466E
:1012A000FFF7A4FD06B070BD000002400008024038
:1012B0002DE9F0414021802710262025314C4FF4A4
:1012C0007A7806285CD2DFE800F00E031E5B334319
:1012D00000222046FFF77AFE002239462046FFF71B
:1012E00075FE002209E001222046FFF76FFE002272
:1012F00039462046FFF76AFE012231462046FFF7B5
:1013000065FE00220EE000222046FFF75FFE01226C
:1013100039462046FFF75AFE002231462046FFF7A5
:1013200055FE012229462046BDE8F041FFF74EBE9A
:1013300001222046FFF74AFE002239462046FFF7E9
:1013400045FE002231462046FFF740FE01220EE016
:1013500000222046FFF73AFE012239462046FFF7D9
:1013600035FE012231462046FFF730FE0022294695
:101370002046FFF72BFE4046BDE8F041FFF72CBFAB
:10138000BDE8F0810000024010B5B5EEC00A2DEDB9
:10139000028BB0EE608AF1EE10FA01D2022000E07A
:1013A0000020FFF785FFB5EEC08AF1EE10FA01D2FA
:1013B000022000E00020BDEC028BBDE81040FFF7EA
:1013C00077BF4FF04070E1EE100A70473A74740036
:1013D0003A7474003A747400F81300080000002096
:1013E00020000000D401000818140008200000208C
:1013F00060070000F001000800000000010000008C
:1014000010000000000000000024F40000000000B4
:081410000000000000000000D4
:040000050800019955
:00000001FF
